:1000000000308A006B280000CC2244104128C12314
:100010004122CF060A00CC2244104527C3224E229B
:100020004922CF060A000B08A3008B13831603177F
:100030008C170C140000000083120313A31B8B17F2
:1000400003170C087F39031969280313A30003174A
:100050000D080313A40003170F080313A5002308BA
:100060000C1E30289900240803178D00031325085F
:1000700003178F0003130B08A6008B1383160317B7
:100080008C170C140000000083120313A61B8B179F
:1000900003170C0D0E0D7F39031969280313A300F4
:1000A00003170D080313A40003170F080313A5007B
:1000B00023080C1E59289900240803178D000313E8
:1000C000250803178F008D0A03198F0A03131328BD
:1000D00003170313080003081F398300831603174F
:1000E000871508300313990002309A00A630980053
:1000F000903083129800A101A0018316031709080C
:10010000C039890003131F129F12003003178800A3
:100110008312870188018901831303138C1AC8286D
:100120008C1E90281A08A2002208303C031DA42827
:100130008316851083128510043003178D0000305C
:100140008F0003131320C6282208313C031DB42856
:1001500083168510831285140B3003178D00003031
:100160008F0003131320C62822083F3C031DC62816
:10017000831605158312051DC22830300C1EBE28BB
:100180009900C62831300C1EC328990090288E286B
:0201900063000A
:04400E00E22FFF3F5F
:00000001FF
;PIC16F887
;CRC=AE1C  CREATED="30-ago.-23 11:58"
