:1000000000308A006D280000CC2244104128C12312
:1000100041224F2E5C370000CC2244104527C322DA
:100020004E2249224F2E5C3700010B08A3008B1390
:10003000831603178C170C1400000000831203139F
:10004000A31B8B1703170C087F3903196B280313A5
:10005000A30003170D080313A40003170F080313CD
:10006000A50023080C1E32289900240803178D00D0
:100070000313250803178F0003130B08A6008B1327
:10008000831603178C170C1400000000831203134F
:10009000A61B8B1703170C0D0E0D7F3903196B2848
:1000A0000313A30003170D080313A40003170F087D
:1000B0000313A50023080C1E5B28990024080317CE
:1000C0008D000313250803178F008D0A03198F0A6B
:1000D0000313152803170313080003081F398300AF
:1000E00083160317871508300313990002309A000E
:1000F000A6309800903083129800A101A0018316C9
:1001000003170908C039890003131F129F1200301A
:100110000317880083128701880189018313031361
:100120008C1ACA288C1E92281A08A2002208303C79
:10013000031DA6288316851083128510043003172B
:100140008D0000308F0003131520C8282208313C91
:10015000031DB62883168510831285140C300317EF
:100160008D0000308F0003131520C82822083F3C63
:10017000031DC828831605158312051DC4283030B9
:100180000C1EC0289900C82831300C1EC5289900C3
:0601900092289028630094
:04400E00E22FFF3F5F
:00000001FF
;PIC16F887
;CRC=C87D  CREATED="24-feb.-22 15:40"
