:1000000000308A006D280000CC2244104128C12312
:1000100041224F2E5C370000CC2244104527C322DA
:100020004E2249224F2E5C3700010B08A3008B1390
:10003000831603178C170C1400000000831203139F
:10004000A31B8B1703170C087F3903196B280313A5
:10005000A30003170D080313A40003170F080313CD
:10006000A50023080C1E32289900240803178D00D0
:100070000313250803178F0003130B08A6008B1327
:10008000831603178C170C1400000000831203134F
:10009000A61B8B1703170C0D0E0D7F3903196B2848
:1000A0000313A30003170D080313A40003170F087D
:1000B0000313A50023080C1E5B28990024080317CE
:1000C0008D000313250803178F008D0A03198F0A6B
:1000D0000313152803170313080003081F398300AF
:1000E000813083169900A6309800903083129800D2
:1000F000A101A00183161F149F141F159F11073023
:100100009C00831383128C1ABD288C1E85281A0824
:10011000A2002208303C031D992883168510831203
:100120008510043003178D0000308F000313152055
:10013000BB282208313C031DA92883168510831291
:1001400085140C3003178D0000308F000313152029
:10015000BB2822083F3C031DBB28831605158312CC
:10016000051DB72830300C1EB3289900BB2831304C
:0C0170000C1EB828990085288328630025
:02400E00723FFF
:00000001FF
;PIC16F877A
;CRC=3EBD  CREATED="24-feb.-22 15:42"
