:1000000000308A006B280000CC2244104128C12314
:100010004122CF060A00CC2244104527C3224E229B
:100020004922CF060A000B08A3008B13831603177F
:100030008C170C140000000083120313A31B8B17F2
:1000400003170C087F39031969280313A30003174A
:100050000D080313A40003170F080313A5002308BA
:100060000C1E30289900240803178D00031325085F
:1000700003178F0003130B08A6008B1383160317B7
:100080008C170C140000000083120313A61B8B179F
:1000900003170C0D0E0D7F39031969280313A300F4
:1000A00003170D080313A40003170F080313A5007B
:1000B00023080C1E59289900240803178D000313E8
:1000C000250803178F008D0A03198F0A03131328BD
:1000D00003170313080003081F39830081308316B8
:1000E0009900A6309800903083129800A101A001D9
:1000F00083161F149F141F159F1107309C00831334
:1001000083128C1ABB288C1E83281A08A20022088E
:10011000303C031D97288316851083128510043008
:1001200003178D0000308F0003131320B928220815
:10013000313C031DA72883168510831285140B30CC
:1001400003178D0000308F0003131320B9282208F5
:100150003F3C031DB928831605158312051DB528DC
:1001600030300C1EB1289900B92831300C1EB62849
:08017000990083288128630037
:02400E00723FFF
:00000001FF
;PIC16F877A
;CRC=8920  CREATED="30-ago.-23 11:57"
